{
  "address": "0xaD71DC80911e819796C1Fe1dd846c50B53F857D8",
  "abi": [
    {
      "inputs": [],
      "stateMutability": "nonpayable",
      "type": "constructor"
    },
    {
      "anonymous": false,
      "inputs": [
        {
          "indexed": false,
          "internalType": "address",
          "name": "borrower",
          "type": "address"
        },
        {
          "indexed": false,
          "internalType": "address",
          "name": "lender",
          "type": "address"
        },
        {
          "components": [
            {
              "internalType": "uint256",
              "name": "amount",
              "type": "uint256"
            },
            {
              "internalType": "uint256",
              "name": "balanceDue",
              "type": "uint256"
            },
            {
              "internalType": "uint256",
              "name": "loanTime",
              "type": "uint256"
            },
            {
              "internalType": "uint256",
              "name": "fee",
              "type": "uint256"
            },
            {
              "internalType": "uint8",
              "name": "interest",
              "type": "uint8"
            },
            {
              "internalType": "uint8",
              "name": "qualification",
              "type": "uint8"
            },
            {
              "internalType": "uint8",
              "name": "pendingFeesCount",
              "type": "uint8"
            },
            {
              "internalType": "uint8",
              "name": "status",
              "type": "uint8"
            }
          ],
          "indexed": false,
          "internalType": "struct AndinLend.Loan",
          "name": "loan",
          "type": "tuple"
        }
      ],
      "name": "FinishLoan",
      "type": "event"
    },
    {
      "anonymous": false,
      "inputs": [
        {
          "indexed": false,
          "internalType": "address",
          "name": "borrower",
          "type": "address"
        },
        {
          "indexed": false,
          "internalType": "address",
          "name": "lender",
          "type": "address"
        },
        {
          "components": [
            {
              "internalType": "uint256",
              "name": "amount",
              "type": "uint256"
            },
            {
              "internalType": "uint256",
              "name": "balanceDue",
              "type": "uint256"
            },
            {
              "internalType": "uint256",
              "name": "loanTime",
              "type": "uint256"
            },
            {
              "internalType": "uint256",
              "name": "fee",
              "type": "uint256"
            },
            {
              "internalType": "uint8",
              "name": "interest",
              "type": "uint8"
            },
            {
              "internalType": "uint8",
              "name": "qualification",
              "type": "uint8"
            },
            {
              "internalType": "uint8",
              "name": "pendingFeesCount",
              "type": "uint8"
            },
            {
              "internalType": "uint8",
              "name": "status",
              "type": "uint8"
            }
          ],
          "indexed": false,
          "internalType": "struct AndinLend.Loan",
          "name": "loan",
          "type": "tuple"
        }
      ],
      "name": "GrantedLoan",
      "type": "event"
    },
    {
      "anonymous": false,
      "inputs": [
        {
          "indexed": false,
          "internalType": "address",
          "name": "borrower",
          "type": "address"
        },
        {
          "indexed": false,
          "internalType": "address",
          "name": "lender",
          "type": "address"
        },
        {
          "components": [
            {
              "internalType": "uint256",
              "name": "amount",
              "type": "uint256"
            },
            {
              "internalType": "uint256",
              "name": "balanceDue",
              "type": "uint256"
            },
            {
              "internalType": "uint256",
              "name": "loanTime",
              "type": "uint256"
            },
            {
              "internalType": "uint256",
              "name": "fee",
              "type": "uint256"
            },
            {
              "internalType": "uint8",
              "name": "interest",
              "type": "uint8"
            },
            {
              "internalType": "uint8",
              "name": "qualification",
              "type": "uint8"
            },
            {
              "internalType": "uint8",
              "name": "pendingFeesCount",
              "type": "uint8"
            },
            {
              "internalType": "uint8",
              "name": "status",
              "type": "uint8"
            }
          ],
          "indexed": false,
          "internalType": "struct AndinLend.Loan",
          "name": "loan",
          "type": "tuple"
        }
      ],
      "name": "PaidFee",
      "type": "event"
    },
    {
      "anonymous": false,
      "inputs": [
        {
          "indexed": false,
          "internalType": "address",
          "name": "borrower",
          "type": "address"
        },
        {
          "components": [
            {
              "internalType": "uint256",
              "name": "amount",
              "type": "uint256"
            },
            {
              "internalType": "uint256",
              "name": "balanceDue",
              "type": "uint256"
            },
            {
              "internalType": "uint256",
              "name": "loanTime",
              "type": "uint256"
            },
            {
              "internalType": "uint256",
              "name": "fee",
              "type": "uint256"
            },
            {
              "internalType": "uint8",
              "name": "interest",
              "type": "uint8"
            },
            {
              "internalType": "uint8",
              "name": "qualification",
              "type": "uint8"
            },
            {
              "internalType": "uint8",
              "name": "pendingFeesCount",
              "type": "uint8"
            },
            {
              "internalType": "uint8",
              "name": "status",
              "type": "uint8"
            }
          ],
          "indexed": false,
          "internalType": "struct AndinLend.Loan",
          "name": "loan",
          "type": "tuple"
        }
      ],
      "name": "RequestedLoan",
      "type": "event"
    },
    {
      "inputs": [
        {
          "internalType": "address",
          "name": "_borrower",
          "type": "address"
        },
        {
          "internalType": "uint8",
          "name": "_qualification",
          "type": "uint8"
        }
      ],
      "name": "addBorrowerQualification",
      "outputs": [],
      "stateMutability": "nonpayable",
      "type": "function"
    },
    {
      "inputs": [
        {
          "internalType": "address",
          "name": "",
          "type": "address"
        }
      ],
      "name": "borrowerQualification",
      "outputs": [
        {
          "internalType": "uint8",
          "name": "",
          "type": "uint8"
        }
      ],
      "stateMutability": "view",
      "type": "function"
    },
    {
      "inputs": [],
      "name": "erc20USDTAddress",
      "outputs": [
        {
          "internalType": "address",
          "name": "",
          "type": "address"
        }
      ],
      "stateMutability": "view",
      "type": "function"
    },
    {
      "inputs": [],
      "name": "getAllLoans",
      "outputs": [
        {
          "components": [
            {
              "internalType": "uint256",
              "name": "amount",
              "type": "uint256"
            },
            {
              "internalType": "uint256",
              "name": "balanceDue",
              "type": "uint256"
            },
            {
              "internalType": "uint256",
              "name": "loanTime",
              "type": "uint256"
            },
            {
              "internalType": "uint256",
              "name": "fee",
              "type": "uint256"
            },
            {
              "internalType": "uint8",
              "name": "interest",
              "type": "uint8"
            },
            {
              "internalType": "uint8",
              "name": "qualification",
              "type": "uint8"
            },
            {
              "internalType": "uint8",
              "name": "pendingFeesCount",
              "type": "uint8"
            },
            {
              "internalType": "uint8",
              "name": "status",
              "type": "uint8"
            }
          ],
          "internalType": "struct AndinLend.Loan[]",
          "name": "",
          "type": "tuple[]"
        },
        {
          "internalType": "address[]",
          "name": "",
          "type": "address[]"
        }
      ],
      "stateMutability": "view",
      "type": "function"
    },
    {
      "inputs": [],
      "name": "getAllPendingLoans",
      "outputs": [
        {
          "components": [
            {
              "internalType": "uint256",
              "name": "amount",
              "type": "uint256"
            },
            {
              "internalType": "uint256",
              "name": "balanceDue",
              "type": "uint256"
            },
            {
              "internalType": "uint256",
              "name": "loanTime",
              "type": "uint256"
            },
            {
              "internalType": "uint256",
              "name": "fee",
              "type": "uint256"
            },
            {
              "internalType": "uint8",
              "name": "interest",
              "type": "uint8"
            },
            {
              "internalType": "uint8",
              "name": "qualification",
              "type": "uint8"
            },
            {
              "internalType": "uint8",
              "name": "pendingFeesCount",
              "type": "uint8"
            },
            {
              "internalType": "uint8",
              "name": "status",
              "type": "uint8"
            }
          ],
          "internalType": "struct AndinLend.Loan[]",
          "name": "",
          "type": "tuple[]"
        },
        {
          "internalType": "address[]",
          "name": "",
          "type": "address[]"
        }
      ],
      "stateMutability": "view",
      "type": "function"
    },
    {
      "inputs": [
        {
          "internalType": "address",
          "name": "_borrower",
          "type": "address"
        }
      ],
      "name": "getLenderByBorrowerAddress",
      "outputs": [
        {
          "internalType": "address",
          "name": "",
          "type": "address"
        }
      ],
      "stateMutability": "view",
      "type": "function"
    },
    {
      "inputs": [
        {
          "internalType": "address",
          "name": "_lender",
          "type": "address"
        }
      ],
      "name": "getLoansByLend",
      "outputs": [
        {
          "components": [
            {
              "internalType": "uint256",
              "name": "amount",
              "type": "uint256"
            },
            {
              "internalType": "uint256",
              "name": "balanceDue",
              "type": "uint256"
            },
            {
              "internalType": "uint256",
              "name": "loanTime",
              "type": "uint256"
            },
            {
              "internalType": "uint256",
              "name": "fee",
              "type": "uint256"
            },
            {
              "internalType": "uint8",
              "name": "interest",
              "type": "uint8"
            },
            {
              "internalType": "uint8",
              "name": "qualification",
              "type": "uint8"
            },
            {
              "internalType": "uint8",
              "name": "pendingFeesCount",
              "type": "uint8"
            },
            {
              "internalType": "uint8",
              "name": "status",
              "type": "uint8"
            }
          ],
          "internalType": "struct AndinLend.Loan[]",
          "name": "",
          "type": "tuple[]"
        }
      ],
      "stateMutability": "view",
      "type": "function"
    },
    {
      "inputs": [
        {
          "internalType": "address",
          "name": "_borrower",
          "type": "address"
        }
      ],
      "name": "grantLoan",
      "outputs": [],
      "stateMutability": "nonpayable",
      "type": "function"
    },
    {
      "inputs": [
        {
          "internalType": "address",
          "name": "",
          "type": "address"
        }
      ],
      "name": "loans",
      "outputs": [
        {
          "internalType": "uint256",
          "name": "amount",
          "type": "uint256"
        },
        {
          "internalType": "uint256",
          "name": "balanceDue",
          "type": "uint256"
        },
        {
          "internalType": "uint256",
          "name": "loanTime",
          "type": "uint256"
        },
        {
          "internalType": "uint256",
          "name": "fee",
          "type": "uint256"
        },
        {
          "internalType": "uint8",
          "name": "interest",
          "type": "uint8"
        },
        {
          "internalType": "uint8",
          "name": "qualification",
          "type": "uint8"
        },
        {
          "internalType": "uint8",
          "name": "pendingFeesCount",
          "type": "uint8"
        },
        {
          "internalType": "uint8",
          "name": "status",
          "type": "uint8"
        }
      ],
      "stateMutability": "view",
      "type": "function"
    },
    {
      "inputs": [],
      "name": "owner",
      "outputs": [
        {
          "internalType": "address",
          "name": "",
          "type": "address"
        }
      ],
      "stateMutability": "view",
      "type": "function"
    },
    {
      "inputs": [
        {
          "internalType": "address",
          "name": "_lender",
          "type": "address"
        }
      ],
      "name": "payFee",
      "outputs": [],
      "stateMutability": "nonpayable",
      "type": "function"
    },
    {
      "inputs": [
        {
          "internalType": "uint256",
          "name": "_amount",
          "type": "uint256"
        },
        {
          "internalType": "uint256",
          "name": "_loanTime",
          "type": "uint256"
        },
        {
          "internalType": "uint8",
          "name": "_interest",
          "type": "uint8"
        },
        {
          "internalType": "uint8",
          "name": "_pendingFeesCount",
          "type": "uint8"
        }
      ],
      "name": "requestLoan",
      "outputs": [],
      "stateMutability": "nonpayable",
      "type": "function"
    },
    {
      "inputs": [
        {
          "internalType": "address",
          "name": "_erc20USDTAddress",
          "type": "address"
        }
      ],
      "name": "setERC20ContractAddress",
      "outputs": [],
      "stateMutability": "nonpayable",
      "type": "function"
    }
  ],
  "transactionHash": "0xd6a5e92463feb7e0d38e0fb8c5ae74f6ae807452dddab5856574f0488e55a032",
  "args": [],
  "numDeployments": 2,
  "solcInputHash": "c6cfcfe95bd54437d6517202605ffa59",
  "bytecode": "0x60806040526006805460ff60a01b1916905534801561001d57600080fd5b50600680546001600160a01b031916331790556118098061003f6000396000f3fe608060405234801561001057600080fd5b50600436106100cf5760003560e01c80638611610d1161008c578063ac4a231d11610066578063ac4a231d1461029a578063b4cb41b4146102ad578063c4356cc9146102c0578063e3ae469a146102d357600080fd5b80638611610d1461023b5780638da5cb5b1461027f578063a5bfd16a1461029257600080fd5b8063251b12ba146100d45780633b17659d146100f3578063601a04771461012857806364ec0309146101655780636f5a955b1461018557806373b4086b14610198575b600080fd5b6100dc6102e6565b6040516100ea9291906114c5565b60405180910390f35b610116610101366004611541565b60036020526000908152604090205460ff1681565b60405160ff90911681526020016100ea565b610163610136366004611574565b6001600160a01b03919091166000908152600360205260409020805460ff191660ff909216919091179055565b005b610178610173366004611541565b6104af565b6040516100ea91906115a7565b610163610193366004611541565b61066f565b6101f46101a6366004611541565b600060208190529081526040902080546001820154600283015460038401546004909401549293919290919060ff808216916101008104821691620100008204811691630100000090041688565b60408051988952602089019790975295870194909452606086019290925260ff908116608086015290811660a085015290811660c08401521660e0820152610100016100ea565b610267610249366004611541565b6001600160a01b039081166000908152600160205260409020541690565b6040516001600160a01b0390911681526020016100ea565b600654610267906001600160a01b031681565b6100dc610a21565b6101636102a8366004611541565b610bbc565b6101636102bb3660046115ba565b610ccb565b600754610267906001600160a01b031681565b6101636102e1366004611541565b610f6f565b606080600060048054905067ffffffffffffffff81111561030957610309611600565b60405190808252806020026020018201604052801561034257816020015b61032f6113d3565b8152602001906001900390816103275790505b50905060005b6004548110156104465760006004828154811061036757610367611616565b60009182526020808320909101546001600160a01b031680835290829052604082206004015490925060ff630100000090910416900361043d576001600160a01b038116600090815260208181526040918290208251610100808201855282548252600183015493820193909352600282015493810193909352600381015460608401526004015460ff8082166080850152918104821660a0840152620100008104821660c0840152630100000090041660e0820152835184908490811061043157610431611616565b60200260200101819052505b50600101610348565b508060048080548060200260200160405190810160405280929190818152602001828054801561049f57602002820191906000526020600020905b81546001600160a01b03168152600190910190602001808311610481575b5050505050905092509250509091565b6001600160a01b0381166000908152600260205260408120546060918167ffffffffffffffff8111156104e4576104e4611600565b60405190808252806020026020018201604052801561051d57816020015b61050a6113d3565b8152602001906001900390816105025790505b506001600160a01b03851660009081526002602090815260408083208054825181850281018501909352808352949550929390929183018282801561058b57602002820191906000526020600020905b81546001600160a01b0316815260019091019060200180831161056d575b5050505050905060005b81518110156106655760008282815181106105b2576105b2611616565b6020908102919091018101516001600160a01b03811660009081528083526040908190208151610100808201845282548252600183015495820195909552600282015492810192909252600381015460608301526004015460ff8082166080840152938104841660a0830152620100008104841660c08301526301000000900490921660e0830152855190925085908490811061065157610651611616565b602090810291909101015250600101610595565b5090949350505050565b600654600160a01b900460ff1615156001146106a65760405162461bcd60e51b815260040161069d9061162c565b60405180910390fd5b3360009081526020819052604081206002015490036107135760405162461bcd60e51b8152602060048201526024808201527f436c69656e7420646f6573206e6f74206861766520616e20616374697665206c60448201526337b0b71760e11b606482015260840161069d565b336000908152602081905260409020600401546301000000900460ff1660011461077f5760405162461bcd60e51b815260206004820152601760248201527f546865206c6f616e206973206e6f74206163746976652e000000000000000000604482015260640161069d565b33600081815260208190526040908190206003015460055491516370a0823160e01b81526004810193909352916001600160a01b03909116906370a0823190602401602060405180830381865afa1580156107de573d6000803e3d6000fd5b505050506040513d601f19601f820116820180604052508101906108029190611681565b1161084f5760405162461bcd60e51b815260206004820152601a60248201527f496e73756666696369656e7420555344542062616c616e63652e000000000000604482015260640161069d565b336000908152600160205260409020546001600160a01b038281169116146108cd5760405162461bcd60e51b815260206004820152602b60248201527f5468652061646472657373206973206e6f7420746865206c656e646572206f6660448201526a103a3434b9903637b0b71760a91b606482015260840161069d565b60055433600081815260208190526040908190206003015490516323b872dd60e01b815260048101929092526001600160a01b0384811660248401526044830191909152909116906323b872dd906064016020604051808303816000875af115801561093d573d6000803e3d6000fd5b505050506040513d601f19601f82011682018060405250810190610961919061169a565b503360009081526020819052604090206004015461098a9060019062010000900460ff166116d2565b336000818152602081905260409081902060048101805460ff95909516620100000262ff00001990951694909417909355517f2ff0630382012eddd9a1b621317fc9eafa8e1c94fd463f3114461e6b71fc481f926109eb92918591906116f1565b60405180910390a13360009081526020819052604081206004015462010000900460ff169003610a1e57610a1e8161137b565b50565b600454606090819060008167ffffffffffffffff811115610a4457610a44611600565b604051908082528060200260200182016040528015610a7d57816020015b610a6a6113d3565b815260200190600190039081610a625790505b50905060005b82811015610b5257600060048281548110610aa057610aa0611616565b60009182526020808320909101546001600160a01b03168083528282526040928390208351610100818101865282548252600183015494820194909452600282015494810194909452600381015460608501526004015460ff8082166080860152928104831660a0850152620100008104831660c08501526301000000900490911660e08301528451909250849084908110610b3e57610b3e611616565b602090810291909101015250600101610a83565b5080600480805480602002602001604051908101604052809291908181526020018280548015610bab57602002820191906000526020600020905b81546001600160a01b03168152600190910190602001808311610b8d575b505050505090509350935050509091565b600654600160a01b900460ff1615610c215760405162461bcd60e51b815260206004820152602260248201527f436f6e7472616374206164647265737320697320616c72656164792061646465604482015261321760f11b606482015260840161069d565b6006546001600160a01b03163314610c8c5760405162461bcd60e51b815260206004820152602860248201527f4f6e6c79206f776e65722063616e206d6f64696679207468652045524332302060448201526720b2323932b9b99760c11b606482015260840161069d565b600580546001600160a01b039092166001600160a01b031992831681179091556006805460ff60a01b1916600160a01b17905560078054909216179055565b600654600160a01b900460ff161515600114610cf95760405162461bcd60e51b815260040161069d9061162c565b336000908152602081905260409020600201541580610d345750336000908152602081905260409020600401546301000000900460ff166002145b610d915760405162461bcd60e51b815260206004820152602860248201527f4561636820757365722063616e206f6e6c792068617665206f6e6520616374696044820152673b32903637b0b71760c11b606482015260840161069d565b6000610da0622819a085611769565b9050600085606481610db58560ff891661178b565b610dbf919061178b565b610dc99190611769565b610dd391906117a2565b90506000610de460ff851683611769565b336000818152600360209081526040808320548151610100810183528d81528084018990528083018d90526060810187905260ff8c8116608083015291821660a082018190528b831660c083015260e082018690529585529284905292206004015493945091926301000000900416600214610e9d57600480546001810182556000919091527f8a35acfbc15ff81a39ae7d344fd709f28e8600b4aa8c65c6b64bfe7fe36bd19b0180546001600160a01b031916331790555b3360008181526020818152604091829020845181559084015160018201558184015160028201556060840151600382015560808401516004909101805460a086015160c087015160e088015160ff90811663010000000263ff0000001992821662010000029290921663ffff0000199382166101000261ffff199095169190961617929092171692909217919091179055517fe444deb832dd50f14014e4abe6c3b4f9666847d9774fd81d00b3b7fabb8bd50c91610f5c9184906117b5565b60405180910390a1505050505050505050565b600654600160a01b900460ff161515600114610f9d5760405162461bcd60e51b815260040161069d9061162c565b6001600160a01b038116600090815260208190526040812060020154900361101b5760405162461bcd60e51b815260206004820152602b60248201527f54686520636c69656e7420646f6573206e6f7420686176652061206c6f616e2060448201526a1c995c5d5a5c995b595b9d60aa1b606482015260840161069d565b6001600160a01b0381166000908152602081905260409020600401546301000000900460ff161561108e5760405162461bcd60e51b815260206004820152601760248201527f546865206c6f616e206973206e6f742070656e64696e67000000000000000000604482015260640161069d565b6001600160a01b03818116600090815260208190526040908190205460055491516370a0823160e01b8152336004820152909291909116906370a0823190602401602060405180830381865afa1580156110ec573d6000803e3d6000fd5b505050506040513d601f19601f820116820180604052508101906111109190611681565b1161115d5760405162461bcd60e51b815260206004820152601a60248201527f496e73756666696369656e7420555344542062616c616e63652e000000000000604482015260640161069d565b6001600160a01b0381811660009081526020819052604090819020546005549151636eb1769f60e11b81523360048201523060248201529092919091169063dd62ed3e90604401602060405180830381865afa1580156111c1573d6000803e3d6000fd5b505050506040513d601f19601f820116820180604052508101906111e59190611681565b101561123f5760405162461bcd60e51b8152602060048201526024808201527f496e73756666696369656e7420555344542062616c616e636520616c6c6f77616044820152633731b29760e11b606482015260840161069d565b6005546001600160a01b03828116600081815260208190526040908190205490516323b872dd60e01b8152336004820152602481019290925260448201529116906323b872dd906064016020604051808303816000875af11580156112a8573d6000803e3d6000fd5b505050506040513d601f19601f820116820180604052508101906112cc919061169a565b506001600160a01b03811660008181526020818152604080832060048101805463ff00000019166301000000179055600180845282852080546001600160a01b031990811633908117909255818752600286528487208054938401815587528587209092018054909216871790915594845292909152517f5b7739e45c88b0768f3d0b82e2e33c39f41d4a65e0bb6ff5aa18bf59f2493f00926113709285926116f1565b60405180910390a150565b336000818152602081905260409081902060048101805463ff0000001916630200000017905590517f0402c2a9d0a86436cc8f73f638b1d1a4c96da0b2ac542c2a731c5517ce8e4a80926113709290918591906116f1565b60405180610100016040528060008152602001600081526020016000815260200160008152602001600060ff168152602001600060ff168152602001600060ff168152602001600060ff1681525090565b8051825260208101516020830152604081015160408301526060810151606083015260ff608082015116608083015260ff60a08201511660a083015260ff60c08201511660c083015260ff60e08201511660e08301525050565b60008151808452602080850194506020840160005b838110156114ba576114a6878351611424565b610100969096019590820190600101611493565b509495945050505050565b6040815260006114d8604083018561147e565b82810360208481019190915284518083528582019282019060005b818110156115185784516001600160a01b0316835293830193918301916001016114f3565b5090979650505050505050565b80356001600160a01b038116811461153c57600080fd5b919050565b60006020828403121561155357600080fd5b61155c82611525565b9392505050565b803560ff8116811461153c57600080fd5b6000806040838503121561158757600080fd5b61159083611525565b915061159e60208401611563565b90509250929050565b60208152600061155c602083018461147e565b600080600080608085870312156115d057600080fd5b84359350602085013592506115e760408601611563565b91506115f560608601611563565b905092959194509250565b634e487b7160e01b600052604160045260246000fd5b634e487b7160e01b600052603260045260246000fd5b60208082526035908201527f5553445420636f6e74726163742061646472657373206973206e6f742061646460408201527432b210313c903a34329037bbb732b916103cb2ba1760591b606082015260800190565b60006020828403121561169357600080fd5b5051919050565b6000602082840312156116ac57600080fd5b8151801515811461155c57600080fd5b634e487b7160e01b600052601160045260246000fd5b60ff82811682821603908111156116eb576116eb6116bc565b92915050565b6001600160a01b039384168152919092166020820152815460408201526001820154606082015260028201546080820152600382015460a082015260049091015460ff80821660c0840152600882901c811660e0840152601082901c811661010084015260189190911c166101208201526101400190565b60008261178657634e487b7160e01b600052601260045260246000fd5b500490565b80820281158282048414176116eb576116eb6116bc565b808201808211156116eb576116eb6116bc565b6001600160a01b0383168152610120810161155c602083018461142456fea26469706673582212202add99e975ba2e4d0c2bcbdc5ecf5206f6750aff1ad3d61fad9a970d8ee1d5db64736f6c63430008180033",
  "devdoc": {
    "kind": "dev",
    "methods": {},
    "version": 1
  },
  "userdoc": {
    "kind": "user",
    "methods": {},
    "notice": "A smart contract that allows users to create loans requests and lenders to borrow USDTs Also returns the lender the borrowed money.",
    "version": 1
  },
  "storageLayout": {
    "storage": [
      {
        "astId": 140,
        "contract": "contracts/AndinLend.sol:AndinLend",
        "label": "loans",
        "offset": 0,
        "slot": "0",
        "type": "t_mapping(t_address,t_struct(Loan)135_storage)"
      },
      {
        "astId": 144,
        "contract": "contracts/AndinLend.sol:AndinLend",
        "label": "borrowerToLender",
        "offset": 0,
        "slot": "1",
        "type": "t_mapping(t_address,t_address)"
      },
      {
        "astId": 149,
        "contract": "contracts/AndinLend.sol:AndinLend",
        "label": "lenderToBorrowers",
        "offset": 0,
        "slot": "2",
        "type": "t_mapping(t_address,t_array(t_address)dyn_storage)"
      },
      {
        "astId": 153,
        "contract": "contracts/AndinLend.sol:AndinLend",
        "label": "borrowerQualification",
        "offset": 0,
        "slot": "3",
        "type": "t_mapping(t_address,t_uint8)"
      },
      {
        "astId": 156,
        "contract": "contracts/AndinLend.sol:AndinLend",
        "label": "borrowersRegister",
        "offset": 0,
        "slot": "4",
        "type": "t_array(t_address)dyn_storage"
      },
      {
        "astId": 193,
        "contract": "contracts/AndinLend.sol:AndinLend",
        "label": "erc20USDT",
        "offset": 0,
        "slot": "5",
        "type": "t_contract(IERC20)77"
      },
      {
        "astId": 195,
        "contract": "contracts/AndinLend.sol:AndinLend",
        "label": "owner",
        "offset": 0,
        "slot": "6",
        "type": "t_address"
      },
      {
        "astId": 198,
        "contract": "contracts/AndinLend.sol:AndinLend",
        "label": "isERC20Added",
        "offset": 20,
        "slot": "6",
        "type": "t_bool"
      },
      {
        "astId": 200,
        "contract": "contracts/AndinLend.sol:AndinLend",
        "label": "erc20USDTAddress",
        "offset": 0,
        "slot": "7",
        "type": "t_address"
      }
    ],
    "types": {
      "t_address": {
        "encoding": "inplace",
        "label": "address",
        "numberOfBytes": "20"
      },
      "t_array(t_address)dyn_storage": {
        "base": "t_address",
        "encoding": "dynamic_array",
        "label": "address[]",
        "numberOfBytes": "32"
      },
      "t_bool": {
        "encoding": "inplace",
        "label": "bool",
        "numberOfBytes": "1"
      },
      "t_contract(IERC20)77": {
        "encoding": "inplace",
        "label": "contract IERC20",
        "numberOfBytes": "20"
      },
      "t_mapping(t_address,t_address)": {
        "encoding": "mapping",
        "key": "t_address",
        "label": "mapping(address => address)",
        "numberOfBytes": "32",
        "value": "t_address"
      },
      "t_mapping(t_address,t_array(t_address)dyn_storage)": {
        "encoding": "mapping",
        "key": "t_address",
        "label": "mapping(address => address[])",
        "numberOfBytes": "32",
        "value": "t_array(t_address)dyn_storage"
      },
      "t_mapping(t_address,t_struct(Loan)135_storage)": {
        "encoding": "mapping",
        "key": "t_address",
        "label": "mapping(address => struct AndinLend.Loan)",
        "numberOfBytes": "32",
        "value": "t_struct(Loan)135_storage"
      },
      "t_mapping(t_address,t_uint8)": {
        "encoding": "mapping",
        "key": "t_address",
        "label": "mapping(address => uint8)",
        "numberOfBytes": "32",
        "value": "t_uint8"
      },
      "t_struct(Loan)135_storage": {
        "encoding": "inplace",
        "label": "struct AndinLend.Loan",
        "members": [
          {
            "astId": 120,
            "contract": "contracts/AndinLend.sol:AndinLend",
            "label": "amount",
            "offset": 0,
            "slot": "0",
            "type": "t_uint256"
          },
          {
            "astId": 122,
            "contract": "contracts/AndinLend.sol:AndinLend",
            "label": "balanceDue",
            "offset": 0,
            "slot": "1",
            "type": "t_uint256"
          },
          {
            "astId": 124,
            "contract": "contracts/AndinLend.sol:AndinLend",
            "label": "loanTime",
            "offset": 0,
            "slot": "2",
            "type": "t_uint256"
          },
          {
            "astId": 126,
            "contract": "contracts/AndinLend.sol:AndinLend",
            "label": "fee",
            "offset": 0,
            "slot": "3",
            "type": "t_uint256"
          },
          {
            "astId": 128,
            "contract": "contracts/AndinLend.sol:AndinLend",
            "label": "interest",
            "offset": 0,
            "slot": "4",
            "type": "t_uint8"
          },
          {
            "astId": 130,
            "contract": "contracts/AndinLend.sol:AndinLend",
            "label": "qualification",
            "offset": 1,
            "slot": "4",
            "type": "t_uint8"
          },
          {
            "astId": 132,
            "contract": "contracts/AndinLend.sol:AndinLend",
            "label": "pendingFeesCount",
            "offset": 2,
            "slot": "4",
            "type": "t_uint8"
          },
          {
            "astId": 134,
            "contract": "contracts/AndinLend.sol:AndinLend",
            "label": "status",
            "offset": 3,
            "slot": "4",
            "type": "t_uint8"
          }
        ],
        "numberOfBytes": "160"
      },
      "t_uint256": {
        "encoding": "inplace",
        "label": "uint256",
        "numberOfBytes": "32"
      },
      "t_uint8": {
        "encoding": "inplace",
        "label": "uint8",
        "numberOfBytes": "1"
      }
    }
  }
}